:100000000C948A000C94A7000C94A7000C94A700F1
:100010000C94A7000C94A7000C94B1020C94C30399
:100020000C94A7000C94A7000C94A7000C94A700B4
:100030000C94A7000C9470040C94B7040C94A700C3
:100040000C9412070C9490050C94C8050C94770638
:100050000C94A7000C94A7000C94A7000C94A70084
:100060000C94A7000C94A7000C94A7000C94A70074
:100070000C94A7000C94A7000C94A7000C946407A0
:100080000C94A7000C94A7000C94A7000C94A70054
:100090000C94A7000C94A7000C94A7000C94A70044
:1000A0000C94A7000C94A7000C94A7000C94A70034
:1000B0000C94A7000C94A7000C94A7000C94A70024
:1000C0000C94A7000C94A7000C94A7000C94A70014
:1000D0000C94A7000C94A7000C94A7000C94A70004
:1000E0000C94A700C001C401C801CC01D001D40107
:1000F000D801DC01E001E401E801EB01F901FD01B7
:100100000102050209020D021102150219021D0267
:100110002102240211241FBECFEFD1E2DEBFCDBFEA
:1001200012E0A0E0B2E0EAEAF1E102C005900D922F
:10013000A430B107D9F722E0A4E0B2E001C01D92DB
:10014000A335B207E1F70E949C020C94D3080C94EB
:10015000000088EE93E0909399008093980020E04F
:1001600030E034C04091490250914A0260914B0204
:1001700070914C0284EF91E090939B0080939A00E1
:100180008091490290914A02A0914B02B0914C0299
:10019000841B950BA60BB70B0397A105B10580F344
:1001A00010929B0010929A008091490290914A020D
:1001B000A0914B02B0914C02841B950BA60BB70B80
:1001C0000697A105B10580F32F5F3F4F223031051F
:1001D0004CF208950F931F93CF93DF9300D000D07C
:1001E000CDB7DEB7FB0119821A821B821C820CC0BC
:1001F00009811A812B813C810F5F1F4F2F4F3F4F89
:1002000009831A832B833C8309811A812B813C81CA
:10021000053711052105310558F3282F30E064E634
:10022000629FC001639F900D1124909309028093F7
:10023000080289E090E0821B930BAFE0A89FB00119
:10024000A99F700D11247093070260930602CA01E2
:10025000969587956AE070E0621B730B0E944808D0
:10026000E617F70718F46E1B7F0B02C060E070E022
:1002700070930502609304020F900F900F900F90FF
:10028000DF91CF911F910F91089580910802909175
:1002900009020895809106029091070208958091C5
:1002A0000402909105020895CF93DF9300D000D00F
:1002B000CDB7DEB79B0119821A821B821C820CC04B
:1002C00049815A816B817C814F5F5F4F6F4F7F4FB8
:1002D00049835A836B837C8349815A816B817C81FA
:1002E0004A335105610571055CF3821B930B44E6AB
:1002F000489F9001499F300D1124A9E8B8E80E9459
:1003000081089695879596958795969587950197F7
:100310000F900F900F900F90DF91CF91089584E18F
:1003200080932B0288EE93E090939900809398003D
:1003300080913602882321F080912B028111F8CF21
:10034000089580912F02893030F480912F028F5FC1
:1003500080932F0202C010922F0280912F0290E012
:1003600090933102809330020895E0913402F0912D
:100370003502EC30F10590F5EE58FF4F0C947B08F8
:100380008FE3809338022AC086E08093380226C02B
:100390008BE58093380222C08FE4809338021EC020
:1003A00086E6809338021AC08DE68093380216C024
:1003B0008DE78093380212C087E0809338020EC028
:1003C0008FE7809338020AC08FE68093380206C018
:1003D0001092380203C083E780933802E091300224
:1003E000F0913102EC30F10590F5E258FF4F0C949A
:1003F0007B088FE380933702089586E0809337026D
:1004000008958BE58093370208958FE48093370237
:10041000089586E68093370208958DE6809337022B
:1004200008958DE780933702089587E0809337021F
:1004300008958FE78093370208958FE680933702FF
:10044000089510923702089583E780933702089544
:1004500010923102109230028BE090E090933502BE
:10046000809334020895F894109233021092360269
:1004700010922D021092320210922F021092390225
:1004800010923A0210923B0210923C0210923D02EE
:1004900010923E0210923F021092400289E6809331
:1004A0002E0285B58E7F85BD85B58D7F85BD85B5D1
:1004B0008B7F85BDE1E8F0E080818E7F8083808145
:1004C0008D7F808380818B7F8083E1E9F0E0808174
:1004D0008E7F808380818D7F808380818B7F8083EE
:1004E000EAE6F0E094E0908380818061808380E29E
:1004F0008DBB8DB380648DBB8FEF81B994B91DB86E
:1005000092E09093B000E1EBF0E081E080838081A5
:1005100082608083E0E7F0E0908380818460808364
:100520008AEF8093B30080E48093B4000E94280295
:100530000E94B501789408950E943302809133029D
:10054000813031F40E94A1010E94B5011092330262
:1005500080913602882391F3109236020E94B307ED
:10056000EBCF1F920F920FB60F921124AF92BF9252
:10057000CF92DF92EF92FF920F931F932F933F93AF
:100580004F935F936F937F938F939F93AF93BF939B
:10059000CF93DF93EF93FF9380912402813049F54D
:1005A0002091390230913A0240913B0250913C0235
:1005B00060913D0270913E0280913F029091400215
:1005C000A0901C02B0901D02C0901E02D0901F028D
:1005D000E0902002F090210200912202109123026B
:1005E0000E949C08A2E30E94A50819F010F0109246
:1005F0002402809124028111ABC0659B44C070919C
:10060000390260913A0250913B0240913C02309194
:100610003D0220913E0290913F02809140027093F2
:100620001402609315025093160240931702309300
:1006300018022093190290931A0280931B02709162
:10064000390260913A0250913B0240913C02309154
:100650003D0220913E0290913F02809140027093B2
:100660001C0260931D0250931E0240931F023093A0
:10067000200220932102909322028093230281E0A2
:100680008093240265C080912E02893621F08091EA
:100690002E02833719F481E08093360220913902CB
:1006A00030913A0240913B0250913C0260913D02F0
:1006B00070913E0280913F0290914002A0901402FE
:1006C000B0901502C0901602D0901702E090180268
:1006D000F090190200911A0210911B020E949C08CE
:1006E0000091390210913A02D0913B02C0913C0234
:1006F000B0913D02A0913E02F0913F02E091400294
:1007000000931C0210931D02D0931E02C0931F027F
:10071000B0932002A0932102F0932202E0932302DF
:10072000E1E0E0932402E0912E02E03789F42F3CCF
:10073000374041055105610571058105910509F0B5
:1007400020F481E080932D0203C081E08093320287
:10075000FF91EF91DF91CF91BF91AF919F918F91D9
:100760007F916F915F914F913F912F911F910F91C9
:10077000FF90EF90DF90CF90BF90AF900F900FBEA3
:100780000F901F9018951F920F920FB60F92112481
:10079000AF92BF92CF92DF92EF92FF920F931F938F
:1007A0002F933F934F935F936F937F938F939F9379
:1007B000AF9380911302813049F520913902309135
:1007C0003A0240913B0250913C0260913D0270918F
:1007D0003E0280913F0290914002A0900B02B090A7
:1007E0000C02C0900D02D0900E02E0900F02F0902B
:1007F000100200911102109112020E949C08A2E3C3
:100800000E94A50819F010F01092130280911302B3
:10081000811150C0669B24C07091390260913A02E8
:1008200050913B0240913C0230913D0220913E02AA
:1008300090913F028091400270930B0260930C02F2
:1008400050930D0240930E0230930F02209310023A
:10085000909311028093120281E0809313022AC0C8
:1008600080912E02893619F481E0809333027091D1
:10087000390260913A0250913B0240913C02309122
:100880003D0220913E0290913F0280914002709380
:100890000B0260930C0250930D0240930E023093B2
:1008A0000F0220931002909311028093120281E0B4
:1008B00080931302AF919F918F917F916F915F9180
:1008C0004F913F912F911F910F91FF90EF90DF90EB
:1008D000CF90BF90AF900F900FBE0F901F901895C4
:1008E0001F920F920FB60F9211242F933F934F93A5
:1008F0005F936F937F938F939F93AF9380912E021B
:10090000893621F080912E02803719F52091390225
:1009100030913A0240913B0250913C0260913D027D
:1009200070913E0280913F0290914002A1E00E94AE
:1009300090082093390230933A0240933B0250933F
:100940003C0260933D0270933E0280933F0290937D
:100950004002AF919F918F917F916F915F914F91E5
:100960003F912F910F900FBE0F901F9018951F92DF
:100970000F920FB60F9211248F93EF93FF93E4EB36
:10098000F0E08081805C808380910A028095809372
:100990000A02813039F485B1846085B980913802CA
:1009A00082B906C085B18B7F85B98091370282B943
:1009B000FF91EF918F910F900FBE0F901F901895A0
:1009C00083E780932E02F89485B5816085BD85B557
:1009D000826085BD85B5846085BDE1E9F0E08081F8
:1009E0008160808380818260808380818460808355
:1009F0007894089585B5826085BDE1E9F0E0808155
:100A00008260808308950E94E004809136028823EA
:100A1000E1F3109236020E94FA040895F8941092BD
:100A2000480210924702109246021092450210921C
:100A3000490210924A0210924B0210924C021092FC
:100A400042021092410280E780932E0281E084BD31
:100A500084B5826084BD85B5886085BD84B58062BB
:100A600084BD92E095BD83B3806283BB88E288BD7C
:100A700084E687BDE1E8F0E084E0808380818064E3
:100A80008083EFE6F0E090838081846080838081C2
:100A90008860808380818062808380E286BB84E37B
:100AA0009CE0909389008093880088E09DE3909378
:100AB0008B0080938A0081E19AE790938D00809368
:100AC0008C00A0E9B0E08C9181608C938C91826065
:100AD0008C93E1E9F0E0808188608083808180618F
:100AE00080838081826080838C9180628C938DB1C1
:100AF00080618DB980E29EE4909399008093980084
:100B0000808180648083E1E7F0E08081806280837F
:100B100088B3816088BB80818160808378940895E8
:100B20001F920F920FB60F9211248F939F93AF9342
:100B3000BF93EF93FF9380912E028037B1F48091A1
:100B4000490290914A02A0914B02B0914C02019649
:100B5000A11DB11D8093490290934A02A0934B02BC
:100B6000B0934C0281E080934D02E8E8F0E0808190
:100B700091818B5C934F91838083FF91EF91BF9123
:100B8000AF919F918F910F900FBE0F901F9018956E
:100B90001F920F920FB60F9211242F933F934F93F2
:100BA0005F936F937F938F939F93AF93BF93EF93D5
:100BB000FF9380912E02803719F481E080935002D8
:100BC00080912E02833709F05CC080912A028095C3
:100BD00080932A02813009F047C0209100023091B1
:100BE0000102369527953695279536952795AFE4DA
:100BF000BBE10E9481089695879596958795969575
:100C000087959093350280933402209100023091B1
:100C10000102A9E8B8E80E948108AC015695479501
:100C2000529542954F7045275F7045279A01ADEC6C
:100C3000BCEC0E9481089695879596958795969528
:100C400087959C01220F331F880F991F880F991FCA
:100C5000880F991F820F931F9A01281B390B30931D
:100C60003102209330020AC08AE090E0909335026E
:100C70008093340290933102809330020E94B50138
:100C80001DC080912E028636C9F480912B028150BE
:100C900080932B0280912C02809580932C0280916E
:100CA0002C02811105C010929B0010929A0006C080
:100CB00084EF91E090939B0080939A00EAE8F0E043
:100CC00080819181875F924C91838083FF91EF9126
:100CD000BF91AF919F918F917F916F915F914F9154
:100CE0003F912F910F900FBE0F901F9018951F925C
:100CF0000F920FB60F9211242F933F934F935F9350
:100D00006F937F938F939F93AF93BF93EF93FF93D3
:100D100080912E02803709F06CC080912E028037BE
:100D200009F05EC080912902809580932902882372
:100D300009F447C0209100023091010236952795B1
:100D40003695279536952795AFE4BBE10E9481083B
:100D50009695879596958795969587959093350264
:100D6000809334022091000230910102A9E8B8E892
:100D70000E948108AC0156954795529542954F7057
:100D800045275F7045279A01ADECBCEC0E948108B5
:100D90009695879596958795969587959C01220FB0
:100DA000331F880F991F880F991F880F991F820F73
:100DB000931F9A01281B390B309331022093300284
:100DC0000DC08BE090E090933502809334028091C7
:100DD0002F0290E090933102809330020E94B5017F
:100DE0008091410290914202019690934202809339
:100DF0004102ECE8F0E0808191818E5E954891831C
:100E00008083FF91EF91BF91AF919F918F917F91DF
:100E10006F915F914F913F912F910F900FBE0F9067
:100E20001F9018951F920F920FB60F9211242F93B7
:100E30003F938F939F93EF93FF938091810086FF61
:100E40000EC0E1E8F0E080818F7B80838091860096
:100E500090918700909328028093270213C0E1E8C5
:100E6000F0E080818064808380918600909187008B
:100E70002091270230912802821B930B9093440209
:100E800080934302FF91EF919F918F913F912F911A
:100E90000F900FBE0F901F90189520914302309134
:100EA0004402220F331F22953295307F3227207F54
:100EB00032273695279536952795ABE7B4E10E9402
:100EC00081089695879508951F920F920FB60F92FD
:100ED00011242F933F938F939F93EF93FF938091D0
:100EE000910086FF22C0E1E9F0E080818F7B808362
:100EF000E6E9F0E08081918120912502309126027F
:100F0000821B930B9093030280930202809147020D
:100F1000909148029093460280934502808191818E
:100F2000909326028093250205C0E1E9F0E08081DC
:100F300080648083FF91EF919F918F913F912F91DA
:100F40000F900FBE0F901F901895209102023091C4
:100F5000030240E050E060EA76E881E090E00E9421
:100F60005C08C90108950E940E0580912D02813010
:100F700039F410922D020E94030580E780932E021F
:100F800080913202813019F410922D0275C0809147
:100F900050028130A9F50E944D0790935202809330
:100FA0005102409151025091520260914102709160
:100FB000420280912F020E94EA000E944F0190930A
:100FC0000102809300020E94450147B59C01429FA7
:100FD000C001439F900D11249C01369527953695AD
:100FE000279536952795A5ECB0E20E948108929549
:100FF00082958F7089279F70892788BD1092500233
:1010000080914D02813089F50E94A50790934F028F
:1010100080934E020E944A0160914E0270914F02ED
:101020000E94540140919800509199009C01249F86
:10103000C001259F900D349F900D11249C01369581
:1010400027953695279536952795A5ECB0E20E9411
:101050008108929582958F7089279F708927909338
:101060009B0080939A0010924D0280910002909113
:101070000102892B09F079CF809100029091010241
:10108000892B19F40E948F0108950E94A9000895E8
:10109000AA1BBB1B51E107C0AA1FBB1FA617B7079E
:1010A00010F0A61BB70B881F991F5A95A9F78095BA
:1010B0009095BC01CD010895052E97FB1EF4009478
:1010C0000E94730857FD07D00E94B10807FC03D0A7
:1010D0004EF40C94730850954095309521953F4FF0
:1010E0004F4F5F4F089590958095709561957F4F14
:1010F0008F4F9F4F0895EE0FFF1F0590F491E02D45
:101100000994A29FB001B39FC001A39F700D811DE0
:101110001124911DB29F700D811D1124911D089500
:101120000024A7FD00942A0F301D401D501D601D96
:10113000701D801D901D08952A193B094C095D09F9
:101140006E097F09800B910B08950024A7FD009480
:101150002A1730054005500560057005800590058B
:101160000895A1E21A2EAA1BBB1BFD010DC0AA1FE8
:10117000BB1FEE1FFF1FA217B307E407F50720F000
:10118000A21BB30BE40BF50B661F771F881F991F7B
:101190001A9469F760957095809590959B01AC01C4
:0A11A000BD01CF010895F894FFCFC0
:0411AA006F0010279B
:00000001FF
