S02B00005072756562615F61726475696E6F5F70756C736163696F6E2D6C617267615F636F7274612E737265D3
S11300000C944C000C945E000C945E000C948001E3
S11300100C945E000C945E000C945E000C944F02F1
S11300200C945E000C945E000C945E000C945E00D4
S11300300C945E000C945E000C9438020C945E00E8
S11300400C945E000C945E000C945E000C945E00B4
S11300500C945E000C945E000C945E000C945E00A4
S11300600C945E000C945E008900900097009E0042
S1130070A500AC00B300BA00C100C800CF00D40092
S1130080E600ED00F400FB00020109011001170174
S11300901E0125012C01310111241FBECFEFD8E030
S11300A0DEBFCDBF21E0A0E0B1E001C01D92A132CE
S11300B0B207E1F70E9479010C94CB020C94000082
S11300C080910E0190910F01099750F480910E01D7
S11300D090910F01019690930F0180930E0104C03B
S11300E010920F0110920E0180910E0190910F0158
S11300F090931801809317010895E0911901F091EC
S11301001A01EC30F10508F055C0EC5CFF4F0C947B
S1130110BC028FE390E09093200180931F014AC0BA
S113012086E090E09093200180931F0143C08BE50B
S113013090E09093200180931F013CC08FE490E0F5
S11301409093200180931F0135C086E690E0909340
S1130150200180931F012EC08DE690E09093200132
S113016080931F0127C08DE790E090932001809336
S11301701F0120C087E090E09093200180931F012D
S113018019C08FE790E09093200180931F0112C063
S11301908FE690E09093200180931F010BC0109292
S11301A0200110921F0106C083E790E09093200184
S11301B080931F01E0911701F0911801EC30F105D3
S11301C008F055C0E05CFF4F0C94BC028FE390E054
S11301D090931E0180931D01089586E090E0909312
S11301E01E0180931D0108958BE590E090931E01FC
S11301F080931D0108958FE490E090931E018093F5
S11302001D01089586E690E090931E0180931D01E0
S113021008958DE690E090931E0180931D0108954A
S11302208DE790E090931E0180931D01089587E06F
S113023090E090931E0180931D0108958FE790E054
S113024090931E0180931D0108958FE690E0909392
S11302501E0180931D01089510921E0110921D012C
S1130260089583E790E090931E0180931D01089503
S113027010921801109217018BE090E090931A01EC
S11302808093190110921C0110921B01089589E6B4
S113029080931601F89481E080936800EBE6F0E027
S11302A080818160808382E08093B0008093B1007C
S11302B0809370009AEF9093B30094B5926094BDCC
S11302C095B5916095BD95B5926095BDEEE6F0E06B
S11302D09081926090839DE797BD9FEF9AB984B90E
S11302E084B1846084B90E9438010E947D007894AE
S11302F008950E9447010E94930280E090E00895CF
S11303001F920F920FB60F921124AF92BF92CF9209
S1130310DF92EF92FF920F931F932F933F934F938C
S11303205F936F937F938F939F93EF93FF9380914A
S11303300A0190910B01019781F480910C01909135
S11303400D012091080130910901821B930BC39781
S113035024F010920B0110920A0180910A019091ED
S11303600B01892B09F06DC0189B26C080910C01EC
S113037090910D019093010180930001892F880FC2
S1130380880B80930201809303018093040180937E
S11303900501809306018093070180910C019091DF
S11303A00D01909309018093080181E090E09093FE
S11303B00B0180930A0145C040910C0150910D013D
S11303C0952F990F990B242F352F492F592F692FCA
S11303D0792F892FA0900001B0900101C0900201F3
S11303E0D0900301E0900401F09005010091060112
S11303F0109107010E94C202E0910C01F0910D01DD
S1130400F0930901E0930801E1E0F0E0F0930B01BF
S1130410E0930A012F3C3740410551056105710500
S11304208105910509F038F481E090E0909315017D
S11304308093140106C081E090E0909311018093B1
S11304401001FF91EF919F918F917F916F915F9137
S11304504F913F912F911F910F91FF90EF90DF905B
S1130460CF90BF90AF900F900FBE0F901F90189534
S11304701F920F920FB60F9211248F939F93809126
S11304800C0190910D01019690930D0180930C0144
S11304909F918F910F900FBE0F901F9018951F92F0
S11304A00F920FB60F9211248F939F9380911B018B
S11304B090911C01019781F485B18B7F85B985B139
S11304C0826085B980911F01909120018BB91092AF
S11304D01C0110921B0111C085B18D7F85B985B1B6
S11304E0846085B980911D0190911E018BB981E0D2
S11304F090E090931C0180931B019F918F910F902A
S11305000FBE0F901F90189580E7809316010895F1
S11305108AE090E0909318018093170190931A0158
S11305208093190108950E9484028091140190918E
S11305301501019741F40E9460000E947D00109211
S113054015011092140180911001909111010197ED
S113055041F40E9488020E947D00109211011092C1
S113056010018091120190911301892BF1F21092E4
S11305701301109212010895EE0FFF1F0590F491DC
S1130580E02D09942A193B094C095D096E097F097C
S10D0590800B910B0895F894FFCF3F
S9030000FC
