:100000000C944C000C945E000C945E000C943F0128
:100010000C945E000C945E000C945E000C94A7019E
:100020000C945E000C945E000C945E000C945E00D8
:100030000C945E000C945E000C9490010C945E0095
:100040000C945E000C945E000C945E000C945E00B8
:100050000C945E000C945E000C945E000C945E00A8
:100060000C945E000C945E0088008B008E00910062
:10007000940097009A009D00A000A300A600AB008A
:10008000BC00BF00C200C500C800CB00CE00D1003C
:10009000D400D700DA00DF0011241FBECFEFD8E074
:1000A000DEBFCDBF21E0A0E0B1E001C01D92A631CE
:1000B000B207E1F70E9422010C94DA010C940000CF
:1000C0008091060190910701099750F480910601F3
:1000D000909107010196909307018093060104C057
:1000E000109207011092060180910601909107017C
:1000F00090930D0180930C010895E0910E01F09111
:100100000F01EC30F10568F5EC5CFF4F0C94D40165
:100110008FE390E022C086E090E01FC08BE590E086
:100120001CC08FE490E019C086E690E016C08DE612
:1001300090E013C08DE790E010C087E090E00DC024
:100140008FE790E00AC08FE690E007C0109215019B
:100150001092140106C083E790E0909315018093FC
:100160001401E0910C01F0910D01EC30F10568F5FE
:10017000E05CFF4F0C94D4018FE390E022C086E056
:1001800090E01FC08BE590E01CC08FE490E019C0A8
:1001900086E690E016C08DE690E013C08DE790E013
:1001A00010C087E090E00DC08FE790E00AC08FE6B6
:1001B00090E007C01092130110921201089583E796
:1001C00090E09093130180931201089510920D0115
:1001D00010920C018BE090E090930F0180930E0140
:1001E00010921101109210010895F89481E080930B
:1001F0006800EBE6F0E080818160808382E080939C
:10020000B0008093B100809370009AEF9093B30098
:1002100094B5926094BD95B5916095BD95B5926089
:1002200095BDEEE6F0E09081926090839DE797BDEA
:100230009FEF9AB984B9229A0E94E6000E947D003D
:10024000789408950E94F50080910A0190910B0125
:10025000019741F40E9460000E947D0010920B0102
:1002600010920A018091080190910901892B61F394
:10027000109209011092080180E090E008951F9209
:100280000F920FB60F9211242F933F938F939F934A
:100290008091020190910301019781F48091040102
:1002A000909105012091000130910101821B930B77
:1002B000C39724F010920301109202018091020171
:1002C00090910301892B19F5189B13C080910401AB
:1002D00090910501909301018093000181E090E0ED
:1002E000909303018093020190930B0180930A0184
:1002F0000EC08091040190910501909301018093BB
:10030000000181E090E090930301809302019F91AE
:100310008F913F912F910F900FBE0F901F901895C6
:100320001F920F920FB60F9211248F939F9380917B
:1003300004019091050101969093050180930401B9
:100340009F918F910F900FBE0F901F9018951F9245
:100350000F920FB60F9211248F939F9380911001EB
:1003600090911101019761F42A98299A80911401C2
:10037000909115018BB910921101109210010DC0CE
:1003800029982A9A80911201909113018BB981E0EA
:1003900090E090931101809310019F918F910F90A5
:1003A0000FBE0F901F901895EE0FFF1F0590F49150
:0803B000E02D0994F894FFCF41
:00000001FF
