:100000000C944C000C945E000C945E000C94F70170
:100010000C945E000C9446010C945E000C948B02D0
:100020000C945E000C945E000C945E000C9404032F
:100030000C945A030C945E000C9474020C945E00B1
:100040000C945E000C945E000C945E000C945E00B8
:100050000C945E000C945E000C945E000C945E00A8
:100060000C945E000C945E007D008000830086008E
:1000700089008C008F009200950098009B00A000E2
:10008000B200B500B800BB00BE00C100C400C7008C
:10009000CA00CD00D000D50011241FBECFEFD8E09C
:1000A000DEBFCDBF21E0A0E0B1E001C01D92A632CD
:1000B000B207E1F70E9431010C94EA030C940000AE
:1000C00080911A01893030F480911A018F5F8093FA
:1000D0001A0102C010921A0180911A01809317012F
:1000E0000895E0911B018E2F90E08C30910570F502
:1000F000FC01EC5CFF4F0C94CF038FE390E022C037
:1001000086E090E01FC08BE590E01CC08FE490E09B
:1001100019C086E690E016C08DE690E013C08DE72A
:1001200090E010C087E090E00DC08FE790E00AC03B
:100130008FE690E007C0109221011092200106C0C6
:1001400083E790E09093210180932001E0911701D3
:100150008E2F90E08C30910570F5FC01E05CFF4F34
:100160000C94CF038FE390E022C086E090E01FC0A4
:100170008BE590E01CC08FE490E019C086E690E02B
:1001800016C08DE690E013C08DE790E010C087E0C8
:1001900090E00DC08FE790E00AC08FE690E007C0C6
:1001A00010921F0110921E01089583E790E0909332
:1001B0001F0180931E010895109217018BE0809318
:1001C0001B0110921C01089589E68093160110927C
:1001D000190110921D011092150110921801109230
:1001E0001A011092230110922201F89410928100BA
:1001F000E8E6F0E091E09083808184608083EBE624
:10020000F0E0808181608083EDE6F0E080818068AD
:10021000808382E08093B000E1EBF0E090839081F6
:1002200092609083809370009EE39093B30094B5A6
:10023000926094BD95B5916095BD95B5926095BD60
:10024000EEE6F0E09081926090839AEF97BD9FE791
:100250009AB984B9229A0E94DC000E9471007894B5
:1002600008950E94E40080911901813031F40E94C8
:1002700060000E9471001092190180911D01882375
:1002800091F310921D010E94E702EBCF1F920F9293
:100290000FB60F921124CF92DF92EF92FF922F931D
:1002A0003F934F935F936F937F938F939F93AF93FE
:1002B000BF93809111018130D1F4809122019091FE
:1002C0002301092E000CAA0BBB0B40910D0150918C
:1002D0000E0160910F0170911001841B950BA60B0C
:1002E000B70BC397A105B10510F0109211018091D1
:1002F0001101811169C04F9B24C08091220190910E
:100300002301092E000CAA0BBB0B809309019093CB
:100310000A01A0930B01B0930C01809122019091EE
:100320002301092E000CAA0BBB0B80930D019093A7
:100330000E01A0930F01B093100181E08093110191
:1003400043C080911601893619F481E080931D0124
:1003500080911601833719F481E080931D0180910B
:10036000220190912301C0900901D0900A01E090F0
:100370000B01F0900C014091220150912301052EB8
:10038000000C660B770B40930D0150930E016093A8
:100390000F017093100121E020931101309116019B
:1003A000303791F4092E000CAA0BBB0B8C199D0958
:1003B000AE09BF09803D9740A105B10518F420930F
:1003C000150102C020931801BF91AF919F918F91A9
:1003D0007F916F915F914F913F912F91FF90EF909F
:1003E000DF90CF900F900FBE0F901F9018951F9227
:1003F0000F920FB60F921124AF92BF92CF92DF925D
:10040000EF92FF920F931F932F933F934F935F931E
:100410006F937F938F939F93AF9380910801813067
:1004200031F54091220150912301952F990F990B9D
:100430009A01492F592F692F792F892FA0900001F8
:10044000B0900101C0900201D0900301E09004013E
:10045000F090050100910601109107010E94D5035B
:10046000A2E30E94DE0319F010F0109208018091BF
:100470000801811123C0189907C08091160189369F
:1004800019F481E080931901809122019091230158
:100490009093010180930001892F880F880B80932E
:1004A00002018093030180930401809305018093EE
:1004B00006018093070181E080930801AF919F912D
:1004C0008F917F916F915F914F913F912F911F91EC
:1004D0000F91FF90EF90DF90CF90BF90AF900F9073
:1004E0000FBE0F901F9018951F920F920FB60F928C
:1004F00011248F939F938091220190912301019663
:1005000090932301809322019F918F910F900FBEB2
:100510000F901F9018951F920F920FB60F921124F3
:100520008F939F9380911C01813051F42A98299ACE
:1005300080912001909121018BB910921C010AC079
:1005400029982A9A80911E0190911F018BB981E010
:1005500080931C019F918F910F900FBE0F901F9061
:10056000189583E780931601809112018F5F909117
:100570001D0121E0280F911102C0822FF8CF809336
:10058000120110921D01089580E78093160180E109
:100590009EE09093250180932401F89484E0809359
:1005A0008100EFE6F0E0808182608083808184605A
:1005B000808382E19AE7909389008093880084E2A7
:1005C00094EF90938B0080938A0078940895CF9352
:1005D0000E94C402C0E780911501813031F410926D
:1005E00015010E94B102C09316018091180181305B
:1005F00019F41092180106C08091240190912501F0
:10060000892B49F7CF9108951F920F920FB60F9241
:1006100011242F933F934F935F936F937F938F9307
:100620009F93AF93BF93EF93FF938091160183370E
:1006300031F5809114018095809314018823C1F0D5
:10064000809124019091250168E572E00E94BB032E
:1006500060931B0180912401909125016CE370E06F
:100660000E94BB03CB016AE070E00E94BB0303C0A1
:100670008AE080931B01809317010E947100809192
:100680008800909189008E5E9548909389008093B0
:100690008800FF91EF91BF91AF919F918F917F91D2
:1006A0006F915F914F913F912F910F900FBE0F90DF
:1006B0001F9018951F920F920FB60F9211242F932F
:1006C0003F934F935F936F937F938F939F93AF93DA
:1006D000BF93EF93FF9380911601803789F5809146
:1006E000240190912501CC979093250180932401BA
:1006F000809113018095809313018823C1F080912C
:1007000024019091250168E572E00E94BB0360938B
:100710001B0180912401909125016CE370E00E94FF
:10072000BB03CB016AE070E00E94BB0305C08BE015
:1007300080931B0180911A01809317010E94710020
:1007400080918A0090918B008C5D9B4090938B00F0
:1007500080938A00FF91EF91BF91AF919F918F910C
:100760007F916F915F914F913F912F910F900FBEAD
:100770000F901F901895AA1BBB1B51E107C0AA1F21
:10078000BB1FA617B70710F0A61BB70B881F991F32
:100790005A95A9F780959095BC01CD010895EE0F6B
:1007A000FF1F0590F491E02D09942A193B094C098B
:1007B0005D096E097F09800B910B08950024A7FD48
:1007C00000942A1730054005500560057005800526
:0807D00090050895F894FFCF95
:00000001FF
