S01D00005072756562615F696E6963696F5F61726475696E6F2E737265637D
S11300000C944C000C945E000C945E000C949301D0
S11300100C945E000C945E000C945E000C94FB0146
S11300200C945E000C945E000C945E000C945E00D4
S11300300C945E000C945E000C94E4010C945E003D
S11300400C945E000C945E000C945E000C945E00B4
S11300500C945E000C945E000C945E000C945E00A4
S11300600C945E000C945E008900900097009E0042
S1130070A500AC00B300BA00C100C800CF00D40092
S1130080E600ED00F400FB00020109011001170174
S11300901E0125012C01310111241FBECFEFD8E030
S11300A0DEBFCDBF21E0A0E0B1E001C01D92A631CA
S11300B0B207E1F70E9476010C9436020C9400001A
S11300C08091060190910701099750F480910601EF
S11300D0909107010196909307018093060104C053
S11300E01092070110920601809106019091070178
S11300F090930D0180930C010895E0910E01F0910D
S11301000F01EC30F10508F055C0EC5CFF4F0C9486
S113011030028FE390E090931501809314014AC05C
S113012086E090E0909315018093140143C08BE521
S113013090E090931501809314013CC08FE490E00B
S1130140909315018093140135C086E690E0909356
S11301501501809314012EC08DE690E09093150153
S11301608093140127C08DE790E09093150180934C
S1130170140120C087E090E090931501809314014E
S113018019C08FE790E0909315018093140112C079
S11301908FE690E090931501809314010BC01092A8
S11301A015011092140106C083E790E090931501A5
S11301B080931401E0910C01F0910D01EC30F105F4
S11301C008F055C0E05CFF4F0C9430028FE390E0E0
S11301D09093130180931201089586E090E0909328
S11301E013018093120108958BE590E0909313011D
S11301F08093120108958FE490E09093130180930B
S11302001201089586E690E0909313018093120101
S113021008958DE690E09093130180931201089560
S11302208DE790E09093130180931201089587E085
S113023090E0909313018093120108958FE790E06A
S1130240909313018093120108958FE690E09093A8
S11302501301809312010895109213011092120158
S1130260089583E790E09093130180931201089519
S113027010920D0110920C018BE090E090930F010D
S113028080930E0110921101109210010895F894B8
S113029081E080936800EBE6F0E0808181608083F8
S11302A082E08093B0008093B100809370009AEF55
S11302B09093B30094B5926094BD95B5916095BD4B
S11302C095B5926095BDEEE6F0E0908192609083E2
S11302D09DE797BD9FEF9AB984B984B1846084B9CE
S11302E00E9438010E947D00789408950E9447017D
S11302F080910A0190910B01019741F40E946000E2
S11303000E947D0010920B0110920A018091080155
S113031090910901892B61F310920901109208014F
S113032080E090E008951F920F920FB60F9211246F
S11303302F933F938F939F93809102019091030198
S1130340019781F4809104019091050120910001AD
S113035030910101821B930BC39724F01092030187
S1130360109202018091020190910301892B19F5E9
S1130370189B13C080910401909105019093010191
S11303808093000181E090E0909303018093020147
S113039090930B0180930A010EC080910401909107
S11303A00501909301018093000181E090E0909316
S11303B00301809302019F918F913F912F910F90A0
S11303C00FBE0F901F9018951F920F920FB60F92A9
S11303D011248F939F9380910401909105010196BC
S11303E090930501809304019F918F910F900FBE0C
S11303F00F901F9018951F920F920FB60F92112411
S11304008F939F938091100190911101019781F432
S113041085B18B7F85B985B1846085B980911401DC
S1130420909115018BB9109211011092100111C015
S113043085B18D7F85B985B1846085B980911201BC
S1130440909113018BB981E090E090931101809316
S113045010019F918F910F900FBE0F901F901895D0
S1130460EE0FFF1F0590F491E02D0994F894FFCF4F
S9030000FC
