S0170000526F626F745F64655F636F63696E612E7372656313
S11300000C948A000C949C000C949C000C949C000E
S11300100C949C000C949C000C947D010C9427027D
S11300200C949C000C949C000C949C000C949C00DC
S11300300C949C000C94D1020C9410030C949C001E
S11300400C949C000C949C000C949C000C949C00BC
S11300500C949C000C949C000C949C000C949C00AC
S11300600C949C000C949C000C949C000C949C009C
S11300700C949C000C949C000C949C000C949C008C
S11300800C949C000C949C000C949C000C949C007C
S11300900C949C000C949C000C949C000C949C006C
S11300A00C949C000C949C000C949C000C949C005C
S11300B00C949C000C949C000C949C000C949C004C
S11300C00C949C000C949C000C949C000C949C003C
S11300D00C949C000C949C000C949C000C949C002C
S11300E00C949C00C600CA00CE00D200D600DA00F0
S11300F0DE00E200E600EA00EE00F100FF0003018A
S113010007010B010F01130117011B011F0123013B
S113011027012A0111241FBECFEFD1E2DEBFCDBFDC
S113012022E0A0E0B2E001C01D92A732B207E1F7DD
S11301300E9468010C946D030C94000080911C02D1
S113014090911D02099750F480911C0290911D0218
S1130150019690931D0280931C0204C010921D020C
S113016010921C0280911C0290911D029093210216
S1130170809320020895E0912202F0912302EC3052
S1130180F10590F5EE58FF4F0C9446038FE38093EE
S113019026022AC086E08093260226C08BE580933F
S11301A0260222C08FE4809326021EC086E6809336
S11301B026021AC08DE68093260216C08DE780932E
S11301C0260212C087E0809326020EC08FE7809338
S11301D026020AC08FE68093260206C010922602E9
S11301E003C083E780932602E0912002F09121026C
S11301F0EC30F10590F5E258FF4F0C9446038FE381
S113020080932502089586E08093250208958BE566
S11302108093250208958FE480932502089586E64D
S11302208093250208958DE68093250208958DE735
S113023080932502089587E08093250208958FE72F
S11302408093250208958FE68093250208951092E5
S11302502502089583E780932502089510922102D0
S1130260109220028BE090E090932302809322026C
S1130270109224020895F894EAE6F0E094E0908362
S113028080818061808380E28DBB8DB380648DBB6F
S11302908FEF81B994B91DB892E09093B000E1EB6F
S11302A0F0E081E08083808182608083E0E7F0E099
S11302B090838081846080838AEF8093B30080E49C
S11302C08093B4000E942E010E94BB00789408958C
S11302D00E943B0180911F02813031F40E949E00F4
S11302E00E94BB0010921F0280911E02882391F38A
S11302F010921E0280E090E008951F920F920FB6B4
S11303000F921124AF92BF92CF92DF92EF92FF929D
S11303100F931F932F933F934F935F936F937F9309
S11303208F939F93AF93EF9380910A02813049F5A5
S11303302091140230911502409116025091170237
S1130340609118027091190280911A0290911B0217
S1130350A0900202B0900302C0900402D090050263
S1130360E0900602F0900702009108021091090241
S11303700E945803A5E00E94610319F010F0109246
S11303800A0280910A0281114BC0659B24C07091BE
S11303901402609115025091160240911702309197
S11303A018022091190290911A0280911B027093F5
S11303B002026093030250930402409305023093B7
S11303C0060220930702909308028093090281E0B9
S11303D080930A0225C081E080931E02E0911402FA
S11303E07091150260911602509117024091180203
S11303F03091190220911A0290911B02E09302029B
S11304007093030260930402509305024093060222
S113041030930702209308029093090280930A0202
S1130420EF91AF919F918F917F916F915F914F91D8
S11304303F912F911F910F91FF90EF90DF90CF90FC
S1130440BF90AF900F900FBE0F901F9018951F9202
S11304500F920FB60F921124AF92BF92CF92DF92F8
S1130460EF92FF920F931F932F933F934F935F93BA
S11304706F937F938F939F93AF93EF938091130226
S1130480813049F5209114023091150240911602F1
S113049050911702609118027091190280911A020A
S11304A090911B02A0900B02B0900C02C0900D0220
S11304B0D0900E02E0900F02F09010020091110211
S11304C0109112020E945803A5E00E94610319F0E2
S11304D010F0109213028091130281114BC0669B9D
S11304E024C070911402609115025091160240913B
S11304F01702309118022091190290911A028091EA
S11305001B0270930B0260930C0250930D024093F4
S11305100E0230930F0220931002909311028093E5
S1130520120281E08093130225C081E080931F02B0
S1130530E091140270911502609116025091170215
S1130540409118023091190220911A0290911B02D5
S1130550E0930B0270930C0260930D0250930E0211
S113056040930F02309310022093110290931202D1
S113057080931302EF91AF919F918F917F916F912F
S11305805F914F913F912F911F910F91FF90EF90A9
S1130590DF90CF90BF90AF900F900FBE0F901F9041
S11305A018951F920F920FB60F9211242F933F9319
S11305B04F935F936F937F938F939F93AF93209108
S11305C01402309115024091160250911702609165
S11305D018027091190280911A0290911B02A1E0F5
S11305E00E944C0320931402309315024093160288
S11305F050931702609318027093190280931A02A1
S113060090931B02AF919F918F917F916F915F9116
S11306104F913F912F910F900FBE0F901F901895FF
S11306201F920F920FB60F9211248F939F93EF9303
S1130630FF93809100029091010201969093010230
S113064080930002E4EBF0E08081805C8083809101
S1130650240280958093240280912402813039F40D
S113066085B1846085B98091260282B906C085B1BE
S11306708B7F85B98091250282B9FF91EF919F917B
S11306808F910F900FBE0F901F901895EE0FFF1FC4
S11306900590F491E02D09940024A7FD00942A0FFD
S11306A0301D401D501D601D701D801D901D08953E
S11306B02A193B094C095D096E097F09800B910BCE
S11306C008950024A7FD00942A173005400550051D
S11106D060057005800590050895F894FFCF2D
S9030000FC
