S0240000526F626F745F64655F636F63696E615F76657273696F6E4275656E612E73726563B6
S11300000C948A000C94A7000C94A7000C94A700ED
S11300100C94A7000C94A7000C9485010C942F0257
S11300200C94A7000C94A7000C94A7000C94A700B0
S11300300C94A7000C94D9020C9418030C94A700F8
S11300400C9423040C94BE030C94E3030C9400045A
S11300500C94A7000C94A7000C94A7000C94A70080
S11300600C94A7000C94A7000C94A7000C94A70070
S11300700C94A7000C94A7000C94A7000C945004B3
S11300800C94A7000C94A7000C94A7000C9499045A
S11300900C94A7000C94A7000C94A7000C94A70040
S11300A00C94A7000C94A7000C94A7000C94A70030
S11300B00C94A7000C94A7000C94A7000C94A70020
S11300C00C94A7000C94A7000C94A7000C94A70010
S11300D00C94A7000C94A7000C94A7000C94A70000
S11300E00C94A700CE00D200D600DA00DE00E200B5
S11300F0E600EA00EE00F200F600F90007010B0149
S11301000F01130117011B011F01230127012B01FB
S11301102F01320111241FBECFEFD1E2DEBFCDBFCC
S113012012E0A0E0B2E0E2EBF9E002C005900D922B
S1130130A230B107D9F722E0A2E0B2E001C01D92DB
S1130140AB33B207E1F70E946E010C94D7040C9410
S1130150000080911702909118028930910530F4C3
S11301600196909318028093170204C0109218020B
S113017010921702809117029091180290932C020A
S113018080932B020895E0912D02F0912E02EC3021
S1130190F10590F5EE58FF4F0C94B0048FE3809373
S11301A030022AC086E08093300226C08BE580931B
S11301B0300222C08FE4809330021EC086E6809312
S11301C030021AC08DE68093300216C08DE780930A
S11301D0300212C087E0809330020EC08FE7809314
S11301E030020AC08FE68093300206C010923002BB
S11301F003C083E780933002E0912B02F0912C023C
S1130200EC30F10590F5E258FF4F0C94B0048FE305
S113021080932F02089586E080932F0208958BE542
S113022080932F0208958FE480932F02089586E629
S113023080932F0208958DE680932F0208958DE711
S113024080932F02089587E080932F0208958FE70B
S113025080932F0208958FE680932F0208951092C1
S11302602F02089583E780932F02089510922C02A1
S113027010922B028BE090E090932E0280932D023B
S11302800895F894EAE6F0E094E090838081806138
S1130290808380E28DBB8DB380648DBB8FEF81B989
S11302A094B91DB892E09093B000E1EBF0E081E0E6
S11302B08083808182608083E0E7F0E090838081A6
S11302C0846080838AEF8093B30080E48093B400D9
S11302D00E9436010E94C300789408950E9441014F
S11302E080912202813031F40E94A9000E94C3004F
S11302F01092220280912102882391F3109221020C
S11303000E94BB0380E090E008951F920F920FB605
S11303100F921124AF92BF92CF92DF92EF92FF928D
S11303200F931F932F933F934F935F936F937F93F9
S11303308F939F93AF93EF9380911602813049F589
S11303402091190230911A0240911B0250911C0213
S113035060911D0270911E0280911F0290912002F3
S1130360A0900E02B0900F02C0901002D090110223
S1130370E0901202F0901302009114021091150201
S11303800E94C204A5E00E94CB0419F010F0109260
S113039016028091160281114BC0659B24C0709196
S11303A0190260911A0250911B0240911C02309173
S11303B01D0220911E0290911F02809120027093D1
S11303C00E0260930F025093100240931102309377
S11303D0120220931302909314028093150281E079
S11303E08093160225C081E080932102E0911902D6
S11303F070911A0260911B0250911C0240911D02DF
S113040030911E0220911F0290912002E0930E026F
S113041070930F02609310025093110240931202E2
S113042030931302209314029093150280931602C2
S1130430EF91AF919F918F917F916F915F914F91C8
S11304403F912F911F910F91FF90EF90DF90CF90EC
S1130450BF90AF900F900FBE0F901F9018951F92F2
S11304600F920FB60F921124AF92BF92CF92DF92E8
S1130470EF92FF920F931F932F933F934F935F93AA
S11304806F937F938F939F93AF93EF9380910D021C
S1130490813049F52091190230911A0240911B02D2
S11304A050911C0260911D0270911E0280911F02E6
S11304B090912002A0900502B0900602C09007021D
S11304C0D0900802E0900902F0900A0200910B0219
S11304D010910C020E94C204A5E00E94CB0419F002
S11304E010F010920D0280910D0281114BC0669B99
S11304F024C07091190260911A0250911B0240911C
S11305001C0230911D0220911E0290911F028091C5
S113051020027093050260930602509307024093F1
S113052008023093090220930A0290930B028093ED
S11305300C0281E080930D0225C081E080932202A9
S1130540E091190270911A0260911B0250911C02F1
S113055040911D0230911E0220911F0290912002B1
S1130560E093050270930602609307025093080219
S11305704093090230930A0220930B0290930C02D9
S113058080930D02EF91AF919F918F917F916F9125
S11305905F914F913F912F911F910F91FF90EF9099
S11305A0DF90CF90BF90AF900F900FBE0F901F9031
S11305B018951F920F920FB60F9211242F933F9309
S11305C04F935F936F937F938F939F93AF932091F8
S11305D0190230911A0240911B0250911C02609141
S11305E01D0270911E0280911F0290912002A1E0D1
S11305F00E94B6042093190230931A0240931B02FE
S113060050931C0260931D0270931E0280931F027C
S113061090932002AF919F918F917F916F915F9101
S11306204F913F912F910F900FBE0F901F901895EF
S11306301F920F920FB60F9211248F939F93EF93F3
S1130640FF93809103029091040201969093040217
S113065080930302E4EBF0E08081805C80838091EE
S11306600202809580930202813039F485B184605E
S113067085B98091300282B906C085B18B7F85B976
S113068080912F0282B9FF91EF919F918F910F90EA
S11306900FBE0F901F901895F89492E095BD81E0DD
S11306A084BD84B5826084BD85B5886085BD84B50C
S11306B0806284BD83B3806283BB88E288BD84E6A4
S11306C087BDE1E8F0E084E08083808180648083FA
S11306D0EFE6F0E09083808184608083808188608D
S11306E0808380818062808380E286BB8FE190E09A
S11306F090938900809388008CE990E090938B001C
S113070080938A0088E391E090938D0080938C001D
S1130710A0E9B0E08C9181608C938C9182608C9381
S1130720E1E9F0E08081886080838081806180835A
S11307308081826080838C9180628C938DB1806192
S11307408DB910929B0010929A0088EC90E09093DF
S1130750990080939800808180648083E1E7F0E0D1
S113076080818062808388B3816088BB808181605E
S11307708083789408950E944C0308951F920F92E9
S11307800FB60F9211248F939F93EF93FF93809151
S113079027029091280201969093280280932702C1
S11307A081E080933602E8E8F0E0808191814F9601
S11307B091838083FF91EF919F918F910F900FBE52
S11307C00F901F9018951F920F920FB60F9211243D
S11307D08F939F93EF93FF9381E080933302EAE832
S11307E0F0E08081918184569F4F91838083FF91B3
S11307F0EF919F918F910F900FBE0F901F901895BE
S11308001F920F920FB60F9211248F939F93EF9321
S1130810FF938091250290912602019690932602DF
S113082080932502ECE8F0E080819181885C9E4F02
S113083091838083FF91EF919F918F910F900FBED1
S11308400F901F9018951F920F920FB60F921124BC
S11308508F939F93EF93FF938091810086FF0AC04B
S1130860E1E8F0E080818F7B808380918600909125
S113087087000DC0E1E8F0E080818064808380918E
S11308808600909187009093320280933102FF9109
S1130890EF919F918F910F900FBE0F901F9018951D
S11308A01F920F920FB60F9211242F933F938F93A1
S11308B09F93EF93FF938091910086FF2AC0E1E913
S11308C0F0E080818F7B80838091340290913502A7
S11308D08091290290912A02E4E9F0E080819181DB
S11308E02091230230912402821B930B90930102E6
S11308F080930002809134029091350290932A02F1
S11309008093290280819181909324028093230211
S113091005C0E1E9F0E0808180648083FF91EF917C
S11309209F918F913F912F910F900FBE0F901F9029
S113093018951F920F920FB60F9211248F939F93C5
S11309408091340290913502019690933502809300
S113095034029F918F910F900FBE0F901F901895A6
S1130960EE0FFF1F0590F491E02D09940024A7FDDC
S113097000942A0F301D401D501D601D701D801DE8
S1130980901D08952A193B094C095D096E097F09D8
S1130990800B910B08950024A7FD00942A173005BD
S11309A04005500560057005800590050895F8948C
S10509B0FFCF73
S10509B2102708
S9030000FC
