:100000000C948A000C949C000C949C000C949C0012
:100010000C949C000C949C000C9478010C9422028B
:100020000C949C000C949C000C949C000C949C00E0
:100030000C949C000C94CC020C940B030C949C002C
:100040000C949C000C949C000C949C000C949C00C0
:100050000C949C000C949C000C949C000C949C00B0
:100060000C949C000C949C000C949C000C949C00A0
:100070000C949C000C949C000C949C000C949C0090
:100080000C949C000C949C000C949C000C949C0080
:100090000C949C000C949C000C949C000C949C0070
:1000A0000C949C000C949C000C949C000C949C0060
:1000B0000C949C000C949C000C949C000C949C0050
:1000C0000C949C000C949C000C949C000C949C0040
:1000D0000C949C000C949C000C949C000C949C0030
:1000E0000C949C00C300C700CB00CF00D300D70006
:1000F000DB00DF00E300E700EB00EE00FC000001A6
:10010000040108010C011001140118011C01200157
:100110002401270111241FBECFEFD1E2DEBFCDBFE6
:1001200022E0A0E0B2E001C01D92A732B207E1F7E1
:100130000E9463010C9466030C94000080911502E8
:10014000909116028930910530F401969093160231
:100150008093150204C0109216021092150280912D
:100160001502909116029093220280932102089525
:10017000E0912302F0912402EC30F10590F5EE5865
:10018000FF4F0C943F038FE3809326022AC086E042
:100190008093260226C08BE58093260222C08FE43E
:1001A000809326021EC086E6809326021AC08DE642
:1001B0008093260216C08DE78093260212C087E046
:1001C000809326020EC08FE7809326020AC08FE636
:1001D0008093260206C01092260203C083E7809314
:1001E0002602E0912102F0912202EC30F10590F517
:1001F000E258FF4F0C943F038FE38093250208954C
:1002000086E08093250208958BE58093250208956A
:100210008FE480932502089586E680932502089551
:100220008DE68093250208958DE780932502089539
:1002300087E08093250208958FE780932502089533
:100240008FE680932502089510922502089583E792
:1002500080932502089510922202109221028BE0D1
:1002600090E090932402809323020895F894EAE6A4
:10027000F0E094E0908380818061808380E28DBB98
:100280008DB380648DBB8FEF81B994B91DB892E0B6
:100290009093B000E1EBF0E081E0808380818260A8
:1002A0008083E0E7F0E090838081846080838AEF40
:1002B0008093B30080E48093B4000E942B010E94DD
:1002C000B800789408950E94360180912002813010
:1002D00031F40E949E000E94B8001092200280918A
:1002E0001F02882391F310921F0280E090E008958E
:1002F0001F920F920FB60F921124AF92BF92CF921E
:10030000DF92EF92FF920F931F932F933F934F93A0
:100310005F936F937F938F939F93AF93EF938091AE
:100320001402813049F52091170230911802409152
:10033000190250911A0260911B0270911C02809167
:100340001D0290911E02A0900C02B0900D02C09070
:100350000E02D0900F02E0901002F0901102009176
:100360001202109113020E945103A5E00E945A0349
:1003700019F010F0109214028091140281114BC0F8
:10038000659B24C070911702609118025091190268
:1003900040911A0230911B0220911C0290911D0283
:1003A00080911E0270930C0260930D0250930E0216
:1003B00040930F0230931002209311029093120287
:1003C0008093130281E08093140225C081E0809322
:1003D0001F02E0911702709118026091190250916A
:1003E0001A0240911B0230911C0220911D02909133
:1003F0001E02E0930C0270930D0260930E02509364
:100400000F02409310023093110220931202909336
:10041000130280931402EF91AF919F918F917F917E
:100420006F915F914F913F912F911F910F91FF908D
:10043000EF90DF90CF90BF90AF900F900FBE0F90D6
:100440001F9018951F920F920FB60F921124AF9222
:10045000BF92CF92DF92EF92FF920F931F932F9351
:100460003F934F935F936F937F938F939F93AF933C
:10047000EF9380910B02813049F520911702309162
:1004800018024091190250911A0260911B0270915A
:100490001C0280911D0290911E02A0900302B09058
:1004A0000402C0900502D0900602E0900702F0908E
:1004B00008020091090210910A020E945103A5E06E
:1004C0000E945A0319F010F010920B0280910B0257
:1004D00081114BC0669B24C0709117026091180275
:1004E0005091190240911A0230911B0220911C0276
:1004F00090911D0280911E0270930302609304028A
:10050000509305024093060230930702209308029D
:100510009093090280930A0281E080930B0225C028
:1005200081E080932002E09117027091180260919F
:10053000190250911A0240911B0230911C02209125
:100540001D0290911E02E0930302709304026093D7
:10055000050250930602409307023093080220934D
:10056000090290930A0280930B02EF91AF919F9141
:100570008F917F916F915F914F913F912F911F913B
:100580000F91FF90EF90DF90CF90BF90AF900F90C2
:100590000FBE0F901F9018951F920F920FB60F92DB
:1005A00011242F933F934F935F936F937F938F9378
:1005B0009F93AF9320911702309118024091190236
:1005C00050911A0260911B0270911C0280911D02D1
:1005D00090911E02A1E00E944503209317023093E0
:1005E00018024093190250931A0260931B027093F1
:1005F0001C0280931D0290931E02AF919F918F91D8
:100600007F916F915F914F913F912F910F900FBE0E
:100610000F901F9018951F920F920FB60F921124F2
:100620008F939F93EF93FF93809101029091020229
:1006300001969093020280930102E4EBF0E0808146
:10064000805C8083809100028095809300028130DD
:1006500039F485B1846085B98091260282B906C0DB
:1006600085B18B7F85B98091250282B9FF91EF9189
:100670009F918F910F900FBE0F901F901895EE0FC6
:10068000FF1F0590F491E02D09940024A7FD00942C
:100690002A0F301D401D501D601D701D801D901DB6
:1006A00008952A193B094C095D096E097F09800BE1
:1006B000910B08950024A7FD00942A1730054005EA
:1006C000500560057005800590050895F894FFCFEA
:00000001FF
