S015000054696D6572335F7072756562612E73726563FD
S11300000C9472000C948F000C948F000C948F004D
S11300100C948F000C948F000C948F000C948F0020
S11300200C948F000C948F000C948F000C948F0010
S11300300C948F000C948F000C948F000C948F0000
S11300400C948F000C948F000C948F000C948F00F0
S11300500C948F000C948F000C948F000C948F00E0
S11300600C948F000C948F000C948F000C948F00D0
S11300700C948F000C948F000C948F000C94DA0075
S11300800C948F000C948F000C948F000C941B0123
S11300900C948F000C948F000C948F000C948F00A0
S11300A00C948F000C948F000C948F000C948F0090
S11300B00C948F000C948F000C948F000C948F0080
S11300C00C948F000C948F000C948F000C948F0070
S11300D00C948F000C948F000C948F000C948F0060
S11300E00C948F0011241FBECFEFD1E2DEBFCDBF31
S11300F012E0A0E0B2E0ECE2F3E002C005900D9261
S1130100A430B107D9F722E0A4E0B2E001C01D9207
S1130110AC30B207E1F70E9453010C9494010C94A3
S11301200000F894A0E9B0E08C9181608C938C91EC
S113013082608C93E1E9F0E0808188608083808133
S1130140806180838081826080838C9180628C93C3
S11301508DB180618DB9809100029091010240E2DD
S11301605EE4849F9001859F300D949F300D11248F
S11301703695279536952795ABE7B4E10E9485011E
S11301809695879590939B0080939A00509399003D
S113019040939800808180648083E1E7F0E080816F
S11301A08062808388B3816088BB80818160808322
S11301B0789408951F920F920FB60F9211242F93E3
S11301C03F938F939F93EF93FF938091910086FFCA
S11301D022C0E1E9F0E080818F7B8083E4E9F0E0F4
S11301E0808191812091040230910502821B930B3E
S11301F09093030280930202809108029091090275
S11302009093070280930602808191819093050266
S11302108093040205C0E1E9F0E08081806480837A
S1130220FF91EF919F918F913F912F910F900FBE6E
S11302300F901F9018951F920F920FB60F921124D2
S11302408F939F9380910802909109020196909355
S11302500902809308029F918F910F900FBE0F9017
S11302601F901895CF93DF9300D000D0CDB7DEB7A1
S1130270209102023091030240E050E060E075E317
S11302808CE090E00E94630129833A834B835C8372
S113029089819A81AB81BC810F900F900F900F9050
S11302A0DF91CF9108950E94910080E090E001C019
S11302B001968C399105E4F30E94320190930B026C
S11302C080930A02F2CFA1E21A2EAA1BBB1BFD01E6
S11302D00DC0AA1FBB1FEE1FFF1FA217B307E40721
S11302E0F50720F0A21BB30BE40BF50B661F771F79
S11302F0881F991F1A9469F7609570958095909559
S11303009B01AC01BD01CF010895A29FB001B39F31
S1130310C001A39F700D811D1124911DB29F700D0A
S10F0320811D1124911D0895F894FFCF55
S107032C3200102760
S9030000FC
