S01F0000526F626F745F64655F636F63696E615F41726475696E6F2E73726563DA
S11300000C944C000C9469000C9469000C947503D6
S11300100C949D060C9469020C9469000C943D04A4
S11300200C9469000C9469000C9468060C9468059F
S11300300C94F1050C9469000C94FE030C94690073
S11300400C9469000C9469000C9469000C94690088
S11300500C9469000C9469000C9469000C94690078
S11300600C9469000C946900760179017C017F018C
S11300708201850188018B018E019101940199010E
S1130080AB01AE01B101B401B701BA01BD01C001B8
S1130090C301C601C901CE0111241FBECFEFD8E0B0
S11300A0DEBFCDBF11E0A0E0B1E0ECE2F4E102C0BC
S11300B005900D92A232B107D9F721E0A2E2B1E096
S11300C001C01D92A237B207E1F70E9454020C94BA
S11300D0140A0C9400000F931F9383E6809343014A
S11300E080E88093B30082E090E000916101109178
S11300F062012091630130916401239A409161016E
S1130100509162016091630170916401401B510B35
S1130110620B730B433051056105710578F3239825
S11301204091610150916201609163017091640199
S1130130401B510B620B730B453051056105710572
S113014078F3019791F61F910F9108950F931F93E0
S1130150CF93DF9300D000D0CDB7DEB7FB01198277
S11301601A821B821C8209811A812B813C810537EA
S113017011052105310568F409811A812B813C811F
S11301800F5F1F4F2F4F3F4F09831A832B833C83ED
S1130190EACFA82FB0E094E6899F90011124309310
S11301A027012093260189E090E08A1B9B0B6FE0D6
S11301B0689F9001699F300D11243093250120938D
S11301C02401CA01969587956AE070E06A1B7B0B4F
S11301D00E94D906E617F70718F46E1B7F0B02C0BE
S11301E060E070E070932301609322010F900F9000
S11301F00F900F90DF91CF911F910F9108958091EF
S11302002601909127010895809124019091250160
S1130210089580912201909123010895CF93DF9353
S113022000D000D0CDB7DEB79B0119821A821B82A1
S11302301C8249815A816B817C814A335105610555
S113024071056CF449815A816B817C814F5F5F4FEA
S11302506F4F7F4F49835A836B837C83EACFAC0112
S1130260421B530B9A0144E6429FC001439F900DE9
S113027011246FE070E00E94D906CB0101970F9022
S11302800F900F900F90DF91CF91089586E68093A1
S1130290430184E18093410180E88093B30080911D
S11302A04A01813021F0809141018111F8CF239AD4
S11302B0089580914701893030F4809147018F5F20
S11302C08093470102C010924701809147018093B7
S11302D044010895E09148018E2F90E08C309105FF
S11302E070F5FC01EC5CFF4F0C940F078FE390E07A
S11302F022C086E090E01FC08BE590E01CC08FE434
S113030090E019C086E690E016C08DE690E013C038
S11303108DE790E010C087E090E00DC08FE790E09B
S11303200AC08FE690E007C010924E0110924D0172
S113033006C083E790E090934E0180934D01E091D5
S113034044018E2F90E08C30910570F5FC01E05C47
S1130350FF4F0C940F078FE390E022C086E090E0FB
S11303601FC08BE590E01CC08FE490E019C086E6C6
S113037090E016C08DE690E013C08DE790E010C0C9
S113038087E090E00DC08FE790E00AC08FE690E030
S113039007C010924C0110924B01089583E790E03E
S11303A090934C0180934B010895109244018BE08B
S11303B08093480110924901089589E6809343018E
S11303C01092460110924A01109242011092450186
S11303D01092470110924F01109250011092510156
S11303E0109252011092530110925401109255012F
S11303F010925601F894A1E8B0E084E08C93EFE603
S1130400F0E080818260808380818460808382E1E7
S11304109AE7909389008093880084E294EF909304
S11304208B0080938A008C9180648C93808180629D
S1130430808380E486BBE8E6F0E091E090838081ED
S113044084608083EBE6F0E0808180628083EDE667
S1130450F0E080818068808382E08093B000E1EBEB
S1130460F0E09083908192609083809370009EE38B
S11304709093B30094B5926094BD95B5916095BD89
S113048095B5926095BDEEE6F0E090819260908320
S11304909AEF97BD9FE79AB984B9229A0E94D50131
S11304A00E946A01789408950E94DD0180914601BA
S11304B0813031F40E9459010E946A011092460170
S11304C080914A01882391F310924A010E94C60444
S11304D0EBCF1F920F920FB60F9211242F923F92DF
S11304E04F925F926F927F928F929F92AF92BF9240
S11304F0CF92DF92EF92FF920F931F932F933F932C
S11305004F935F936F937F938F939F93AF93BF9317
S1130510CF93DF93EF93FF9380913901813049F5B5
S113052020914F013091500140915101509152015D
S1130530609153017091540180915501909156013D
S11305404090350150903601609037017090380129
S11305501201230151016201E12CF12C00E010E0B1
S11305600E942107A2E30E942A0719F010F01092BA
S1130570390180913901811195C04F9B38C0709128
S11305804F0160915001509151014091520180916D
S113059053018091540180915501809156019B0132
S11305A0CA01309331012093320190933301809337
S11305B0340170914F01609150015091510140916B
S11305C05201809153018091540180915501809191
S11305D056019B01CA013093350120933601909353
S11305E037018093380181E0809339015BC08091A9
S11305F04301893619F481E080934A0180914301D3
S1130600833719F481E080934A018091430186364F
S113061019F481E080934A0180914F019091500137
S1130620A0915101B0915201C0915301D091540154
S1130630E0915501F0915601409031015090320102
S1130640609033017090340180904F01909050017C
S113065070915101609152012091530120915401F4
S113066020915501209156019B0180923501909271
S11306703601309337012093380121E0209339016A
S113068030914301303771F484199509A609B709EB
S1130690803D9740A105B10518F42093420102C0A2
S11306A020934501FF91EF91DF91CF91BF91AF91DD
S11306B09F918F917F916F915F914F913F912F9176
S11306C01F910F91FF90EF90DF90CF90BF90AF906C
S11306D09F908F907F906F905F904F903F902F905E
S11306E00F900FBE0F901F9018951F920F920FB688
S11306F00F921124AF92BF92CF92DF92EF92FF92AA
S11307000F931F932F933F934F935F936F937F9315
S11307108F939F93AF9380913001813049F520915D
S11307204F0130915001409151015091520160911B
S11307305301709154018091550190915601A090FC
S11307402801B0902901C0902A01D0902B01E0909B
S11307502C01F0902D0100912E0110912F010E9487
S11307602107A2E30E942A0719F010F01092300129
S11307708091300181112CC01D9907C080914301E3
S1130780893619F481E08093460170914F0160919C
S113079050015091510140915201309153012091E7
S11307A054019091550180915601709328016093F2
S11307B0290150932A0140932B0130932C0120935B
S11307C02D0190932E0180932F0181E080933001BD
S11307D0AF919F918F917F916F915F914F913F91D5
S11307E02F911F910F91FF90EF90DF90CF90BF90CA
S11307F0AF900F900FBE0F901F9018951F920F92FD
S11308000FB60F9211242F933F934F935F936F93DF
S11308107F938F939F93AF9320914F013091500119
S113082040915101509152016091530170915401D2
S11308308091550190915601A1E00E9415072093E3
S11308404F013093500140935101509352016093F2
S11308505301709354018093550190935601AF91C5
S11308609F918F917F916F915F914F913F912F91C4
S11308700F900FBE0F901F9018951F920F920FB6F6
S11308800F9211248F939F9380914901813051F4E9
S11308902A98299A80914D0190914E018BB910921A
S11308A049010AC029982A9A80914B0190914C01E0
S11308B08BB981E0809349019F918F910F900FBE76
S11308C00F901F90189583E7809343011092B30013
S11308D008950E94630480913A018F5F90914A01C8
S11308E021E0280F911102C0822FF8CF80933A01A2
S11308F010924A01089587E690E00E94C70682E0BC
S113090091E090936F0180936E0180E7809343019F
S113091080914701813019F488E592E002C080E1BA
S11309209EE09093600180935F01109261011092A8
S113093062011092630110926401109258011092A6
S1130940570110926801F89481E08093B00080917F
S1130950B00082608093B0008091B0008068809382
S1130960B00082E08093B100239A8091700082608D
S11309708093700080916800826080936800809109
S11309806C00816080936C0078940895DF92EF92FC
S1130990FF920F931F93CF93DF930E947B042FEF5B
S11309A031EE84E0215030408040E1F700C0000087
S11309B010E704E6DD24DA9488EEE82E83E0F82ECE
S11309C0C0E1D1E080914201813031F410924201C2
S11309D00E9469041093430180914501813019F408
S11309E0109245015DC080916901813071F52091BB
S11309F0590130915A01029FC001039F900D1124A7
S1130A0090936B0180936A0140916A0150916B014C
S1130A106091570170915801809147010E94A6008E
S1130A200E9409019093600180935F010E94FF007E
S1130A309C01D29EC001D39E900D1124B7010E9447
S1130A40D9066093B30010926901809165018130E9
S1130A5091F480910001909101019093670180933A
S1130A6066010E94040160916601709167010E9411
S1130A700E011092650180916A0190916B019F9320
S1130A808F93DF93CF930E94360780915F019091FB
S1130A9060010F900F900F900F90892B09F092CF67
S1130AA080915F0190916001892B49F0DF91CF9192
S1130AB01F910F91FF90EF90DF900C946B00DF91EA
S1130AC0CF911F910F91FF90EF90DF900C9446010E
S1130AD01F920F920FB60F9211242F933F934F93AF
S1130AE05F936F937F938F939F93AF93BF93EF9392
S1130AF0FF938091610190916201A0916301B09193
S1130B0064010196A11DB11D80936101909362015E
S1130B10A0936301B093640180914301803719F479
S1130B2081E080936501609161017091620180911F
S1130B3063019091640125E030E040E050E00E94C0
S1130B40ED06672B682B692B89F58091430180376B
S1130B5019F481E08093690180914301833731F571
S1130B60809140018095809340018823C1F0809159
S1130B705F019091600168E572E00E94D90660937C
S1130B80480180915F01909160016CE370E00E94E4
S1130B90D906CB016AE070E00E94D90603C08AE05E
S1130BA080934801809344010E946A0180918800E7
S1130BB0909189008659974E90938900809388007C
S1130BC0FF91EF91BF91AF919F918F917F916F9121
S1130BD05F914F913F912F910F900FBE0F901F90F7
S1130BE018951F920F920FB60F9211242F933F93D3
S1130BF04F935F936F937F938F939F93AF93BF9321
S1130C00EF93FF938091570190915801019690932F
S1130C1058018093570180914301803749F58091B1
S1130C203F01809580933F018823C1F080915F014B
S1130C309091600168E572E00E94D90660934801D2
S1130C4080915F01909160016CE370E00E94D9068D
S1130C50CB016AE070E00E94D90605C08BE0809366
S1130C60480180914701809344010E946A0115C0A4
S1130C7080914301863689F48091410181508093AB
S1130C804101809168018095809368018091680199
S1130C90811102C0239801C0239A80918A00909107
S1130CA08B008C5D9B4090938B0080938A00FF9116
S1130CB0EF91BF91AF919F918F917F916F915F91D0
S1130CC04F913F912F910F900FBE0F901F90189549
S1130CD01F920F920FB60F9211242F933F938F936D
S1130CE09F938091810086FF0DC0809181008F7B4E
S1130CF0809381008091B20090E090933E018093B4
S1130D003D0112C0809181008064809381008091B4
S1130D10B20090E020913D0130913E01821B930B83
S1130D2090935A01809359019F918F913F912F91F4
S1130D300F900FBE0F901F9018951F920F920FB631
S1130D400F9211242F933F938F939F93EF93FF93CD
S1130D50E2EBF0E0808190E020913B0130913C0196
S1130D60821B930B9093010180930001808190E09A
S1130D7090933C0180933B01FF91EF919F918F9160
S1130D803F912F910F900FBE0F901F901895909345
S1130D90C5008093C40088E18093C10086E08093FD
S1130DA0C20008959091C00095FFFCCF8093C600C7
S1130DB00895AA1BBB1B51E107C0AA1FBB1FA6179E
S1130DC0B70710F0A61BB70B881F991F5A95A9F7F0
S1130DD080959095BC01CD010895A1E21A2EAA1B1D
S1130DE0BB1BFD010DC0AA1FBB1FEE1FFF1FA217D7
S1130DF0B307E407F50720F0A21BB30BE40BF50BD4
S1130E00661F771F881F991F1A9469F7609570955C
S1130E10809590959B01AC01BD01CF010895EE0F23
S1130E20FF1F0590F491E02D09940024A7FD009480
S1130E302A0F301D401D501D601D701D801D901D0A
S1130E4008952A193B094C095D096E097F09800B35
S1130E50910B08950024A7FD00942A17300540053E
S1130E60500560057005800590050895A0E0B0E088
S1130E70ECE3F7E00C94ED09AE014B5F5F4FFA0130
S1130E8061917191AF0180916E0190916F010E9407
S1130E904C07E2E00C94090AABE0B0E0E2E5F7E0CD
S1130EA00C94DD096C017B018A01FC011782168216
S1130EB0838181FFCCC1CE0101963C01F60193816F
S1130EC0F70193FD859193FF81917F01882309F4B4
S1130ED0BAC1853239F493FD859193FF81917F01E5
S1130EE0853229F4B60190E00E944309E7CF912CA2
S1130EF0212C312CFFE1F315D8F08B3279F038F442
S1130F00803279F08332A1F4232D20611DC08D320B
S1130F1061F0803369F4232D216016C0832D826033
S1130F20382EE32DE4603E2E2AC0F32DF8601DC058
S1130F3037FC2DC020ED280F2A3040F08E32B9F452
S1130F4036FC81C1232D2064322E19C036FE06C022
S1130F508AE0989E200D1124922E11C0EAE02E9E64
S1130F60200D1124222EF32DF0623F2E08C08C3662
S1130F7021F4832D8068382E02C0883641F4F701AD
S1130F8093FD859193FF81917F018111B3CF982FB8
S1130F909F7D9554933028F40C5F1F4F9FE39983F2
S1130FA00DC0833631F0833771F0833509F059C0B1
S1130FB021C0F801808189830E5F1F4F88248394A8
S1130FC0912C530113C02801F2E04F0E511CF8017B
S1130FD0A080B18036FE03C0692D70E002C06FEFBF
S1130FE07FEFC5010E9438094C018201F32DFF7780
S1130FF03F2E16C0280122E0420E511CF801A080A9
S1131000B18036FE03C0692D70E002C06FEF7FEF40
S1131010C5010E942D094C01F32DF0683F2E820179
S113102033FC1BC0822D90E088169906B0F4B601FB
S113103080E290E00E9443092A94F4CFF50137FC42
S1131040859137FE81915F01B60190E00E944309CA
S113105021102A9421E0821A91088114910471F7D5
S1131060E8C0843611F0893641F5F80137FE07C02F
S113107060817181828193810C5F1F4F08C0608100
S11310807181072E000C880B990B0E5F1F4FF32DF7
S1131090FF763F2E97FF09C09095809570956195D6
S11310A07F4F8F4F9F4FF0683F2E2AE030E0A3011F
S11310B00E947F09882E861845C0853731F4232D78
S11310C02F7EB22E2AE030E025C0932D997FB92ED1
S11310D08F36C1F018F4883579F0B5C0803719F02F
S11310E0883721F0B0C0E92FE061BE2EB4FE0DC0F8
S11310F0FB2DF460BF2E09C034FE0AC0292F2660E0
S1131100B22E06C028E030E005C020E130E002C085
S113111020E132E0F801B7FE07C06081718182816D
S113112093810C5F1F4F06C06081718180E090E065
S11311300E5F1F4FA3010E947F09882E8618FB2D86
S1131140FF773F2E36FE0DC0232D2E7FA22E89144D
S113115058F434FE0BC032FC09C0832D8E7EA82EB9
S113116005C0B82CA32C03C0B82C01C0B92CA4FE14
S11311700FC0FE01E80DF11D8081803321F49A2D0A
S1131180997EA92E09C0A2FE06C0B394B39404C0EC
S11311908A2D867809F0B394A3FC11C0A0FE06C082
S11311A0B21488F4280C922C9B180EC0B21460F46C
S11311B0B60180E290E00E944309B394F7CFB214E1
S11311C018F42B1802C0982C212CA4FE10C0B601D0
S11311D080E390E00E944309A2FE17C0A1FC03C073
S11311E088E790E002C088E590E0B6010CC08A2D43
S11311F0867859F0A1FE02C08BE201C080E2A7FC10
S11312008DE2B60190E00E944309891438F4B601D6
S113121080E390E00E9443099A94F7CF8A94F30103
S1131220E80DF11D8081B60190E00E944309811010
S1131230F5CF222009F442CEB60180E290E00E946C
S113124043092A94F6CFF6018681978102C08FEF75
S11312509FEF2B96E2E10C94F909FC010590615093
S113126070400110D8F7809590958E0F9F1F0895B8
S1131270FC016150704001900110D8F78095909561
S11312808E0F9F1F08950F931F93CF93DF93FB013E
S1131290238121FD03C08FEF9FEF2CC022FF16C0D6
S11312A046815781248135814217530744F4A08134
S11312B0B1819D012F5F3F4F318320838C93268121
S11312C037812F5F3F4F3783268314C08B01EC0196
S11312D0FB010084F185E02D0995892BE1F6D80105
S11312E016968D919C911797019617969C938E93C1
S11312F01697CE01DF91CF911F910F910895FA01B6
S1131300AA27283051F1203181F1E8946F936E7F40
S11313106E5F7F4F8F4F9F4FAF4FB1E03ED0B4E031
S11313203CD0670F781F891F9A1FA11D680F791F72
S11313308A1F911DA11D6A0F711D811D911DA11D83
S113134020D009F468943F912AE0269F1124301993
S1131350305D3193DEF6CF010895462F4770405D2E
S11313604193B3E00FD0C9F7F6CF462F4F70405DDD
S11313704A3318F0495D31FD4052419302D0A9F738
S1131380EACFB4E0A6959795879577956795BA9532
S1131390C9F700976105710508959B01AC010A2EF8
S11313A006945795479537952795BA95C9F7620FCF
S11313B0731F841F951FA01D08952F923F924F9273
S11313C05F926F927F928F929F92AF92BF92CF92D1
S11313D0DF92EF92FF920F931F93CF93DF93CDB7DA
S11313E0DEB7CA1BDB0B0FB6F894DEBF0FBECDBF52
S11313F009942A88398848885F846E847D848C8423
S11314009B84AA84B984C884DF80EE80FD800C812B
S11314101B81AA81B981CE0FD11D0FB6F894DEBF0E
S10F14200FBECDBFED010895F894FFCF7E
S113142C0A000000000200000000D20600000000C8
S113143C74656D7065726174757261203D202575DB
S105144C0A0090
S9030000FC
