S01F0000526F626F745F64655F636F63696E615F41726475696E6F2E73726563DA
S11300000C944C000C9469000C9469000C946E03DD
S11300100C94C8060C9462020C9469000C94390484
S11300200C9469000C9469000C9493060C94930549
S11300300C941C060C9469000C94F7030C94F206BF
S11300400C9469000C9469000C9469000C94690088
S11300500C9469000C9469000C9469000C94690078
S11300600C9469000C946900760179017C017F018C
S11300708201850188018B018E019101940199010E
S1130080AB01AE01B101B401B701BA01BD01C001B8
S1130090C301C601C901CE0111241FBECFEFD8E0B0
S11300A0DEBFCDBF11E0A0E0B1E0E0EDF4E102C0BD
S11300B005900D92AE32B107D9F721E0AEE2B1E07E
S11300C001C01D92A038B207E1F70E944D020C94C2
S11300D0660A0C9400000F931F9383E680934F01EC
S11300E080E88093B30082E090E000916F0110916A
S11300F070012091710130917201239A40916F0136
S1130100509170016091710170917201401B510B0B
S1130110620B730B433051056105710578F3239825
S113012040916F0150917001609171017091720161
S1130130401B510B620B730B453051056105710572
S113014078F3019791F61F910F9108950F931F93E0
S1130150CF93DF9300D000D0CDB7DEB7FB01198277
S11301601A821B821C8209811A812B813C810537EA
S113017011052105310568F409811A812B813C811F
S11301800F5F1F4F2F4F3F4F09831A832B833C83ED
S1130190EACFA82FB0E094E6899F90011124309310
S11301A033012093320189E090E08A1B9B0B6FE0BE
S11301B0689F9001699F300D112430933101209381
S11301C03001CA01969587956AE070E06A1B7B0B43
S11301D00E942B07E617F70718F46E1B7F0B02C06B
S11301E060E070E070932F0160932E010F900F90E8
S11301F00F900F90DF91CF911F910F9108958091EF
S11302003201909133010895809130019091310130
S1130210089580912E0190912F010895CF93DF933B
S113022000D000D0CDB7DEB79B0119821A821B82A1
S11302301C8249815A816B817C814A335105610555
S113024071056CF449815A816B817C814F5F5F4FEA
S11302506F4F7F4F49835A836B837C83EACFAC0112
S1130260421B530B9A0144E6429FC001439F900DE9
S113027011246FE070E00E942B07CB0101970F90CF
S11302800F900F900F90DF91CF91089586E68093A1
S11302904F0184E180934D0180E88093B300809105
S11302A05601813021F080914D018111F8CF239ABC
S11302B0089580915301893030F4809153018F5F08
S11302C08093530102C01092530180915301809393
S11302D050010895E09154018E2F90E08C309105E7
S11302E070F5FC01EC5CFF4F0C9461078FE390E028
S11302F022C086E090E01FC08BE590E01CC08FE434
S113030090E019C086E690E016C08DE690E013C038
S11303108DE790E010C087E090E00DC08FE790E09B
S11303200AC08FE690E007C010925A01109259015A
S113033006C083E790E090935A0180935901E091BD
S113034050018E2F90E08C30910570F5FC01E05C3B
S1130350FF4F0C9461078FE390E022C086E090E0A9
S11303601FC08BE590E01CC08FE490E019C086E6C6
S113037090E016C08DE690E013C08DE790E010C0C9
S113038087E090E00DC08FE790E00AC08FE690E030
S113039007C01092580110925701089583E790E026
S11303A090935801809357010895109250018BE067
S11303B08093540110925501089589E680934F016A
S11303C0109252011092560110924E011092510156
S11303D01092530110925B0110925C0110925D0126
S11303E010925E0110925F011092600110926101FF
S11303F010926201F894A1E8B0E084E08C93EFE6F7
S1130400F0E08081826080838081846080838AE6DA
S113041098E1909389008093880084E294EF90930C
S11304208B0080938A008C9180648C93808180629D
S1130430808380E486BBE8E6F0E091E090838081ED
S113044084608083EBE6F0E0808180628083EDE667
S1130450F0E080818068808382E08093B000E1EBEB
S1130460F0E09083908192609083809370002EE3FB
S11304702093B30095B5926095BDEEE6F0E09081CF
S11304809260908327BD9FE79AB984B9229A0E940B
S1130490D5010E946A01789408950E94DD0180913B
S11304A05201813031F40E9459010E946A01109274
S11304B0520180915601882391F3109256010E94B3
S11304C0CA04EBCF1F920F920FB60F9211242F92F2
S11304D03F924F925F926F927F928F929F92AF92D0
S11304E0BF92CF92DF92EF92FF920F931F932F93BD
S11304F03F934F935F936F937F938F939F93AF93A8
S1130500BF93CF93DF93EF93FF93809145018130A5
S113051049F520915B0130915C0140915D0150915E
S11305205E0160915F017091600180916101909121
S113053062014090410150904201609043017090EB
S113054044011201230151016201E12CF12C00E06C
S113055010E00E947307A2E30E947C0719F010F0D8
S11305601092450180914501811195C04F9B38C07F
S113057070915B0160915C0150915D0140915E015D
S113058080915F018091600180916101809162019D
S11305909B01CA0130933D0120933E0190933F019A
S11305A08093400170915B0160915C0150915D0109
S11305B040915E0180915F018091600180916101B1
S11305C0809162019B01CA01309341012093420151
S11305D0909343018093440181E0809345015BC083
S11305E080914F01893619F481E0809356018091FE
S11305F04F01833719F481E08093560180914F01B4
S1130600863619F481E08093560180915B019091C4
S11306105C01A0915D01B0915E01C0915F01D09138
S11306206001E0916101F091620140903D015090C0
S11306303E0160903F017090400180905B0190907A
S11306405C0170915D0160915E0120915F012091D8
S1130650600120916101209162019B01809241011E
S113066090924201309343012093440121E020936E
S1130670450130914F01303771F484199509A60969
S1130680B709803D9740A105B10518F420934E01A8
S113069002C020935101FF91EF91DF91CF91BF915F
S11306A0AF919F918F917F916F915F914F913F9106
S11306B02F911F910F91FF90EF90DF90CF90BF90FB
S11306C0AF909F908F907F906F905F904F903F90EE
S11306D02F900F900FBE0F901F9018951F920F929E
S11306E00FB60F921124AF92BF92CF92DF92EF9286
S11306F0FF920F931F932F933F934F935F936F93A7
S11307007F938F939F93AF9380913C01813049F500
S113071020915B0130915C0140915D0150915E013B
S113072060915F017091600180916101909162011B
S1130730A0903401B0903501C0903601D0903701BB
S1130740E0903801F090390100913A0110913B0199
S11307500E947307A2E30E947C0719F010F0109224
S11307603C0180913C0181112CC01D9907C08091EE
S11307704F01893619F481E08093520170915B0135
S113078060915C0150915D0140915E0130915F0187
S11307902091600190916101809162017093340114
S11307A060933501509336014093370130933801FB
S11307B02093390190933A0180933B0181E0809327
S11307C03C01AF919F918F917F916F915F914F9178
S11307D03F912F911F910F91FF90EF90DF90CF9059
S11307E0BF90AF900F900FBE0F901F9018951F925F
S11307F00F920FB60F9211242F933F934F935F9351
S11308006F937F938F939F93AF9320915B0130916C
S11308105C0140915D0150915E0160915F017091B6
S113082060018091610190916201A1E00E946707DB
S113083020935B0130935C0140935D0150935E0112
S113084060935F01709360018093610190936201F2
S113085087B5825C87BDAF919F918F917F916F9196
S11308605F914F913F912F910F900FBE0F901F906A
S113087018951F920F920FB60F9211248F939F9386
S113088080915501813051F42A98299A8091590117
S113089090915A018BB9109255010AC029982A9A4D
S11308A080915701909158018BB981E08093550153
S11308B09F918F910F900FBE0F901F90189583E713
S11308C080934F011092B30008950E945F048091B9
S11308D046018F5F9091560121E0280F911102C0CB
S11308E0822FF8CF8093460110925601089587E62F
S11308F090E00E94190782E091E090937D0180933B
S11309007C0180E780934F0180915301813019F479
S113091088E592E002C080E19EE090936E018093AE
S11309206D0110926F01109270011092710110927A
S11309307201109266011092650110927601F8948A
S113094081E08093B0008091B00082608093B00019
S11309508091B00080688093B00082E08093B10001
S1130960239A8091700082608093700080916E0061
S1130970846080936E008AEF88BD3D9A8091680000
S113098082608093680080916C00816080936C0029
S113099078940895AF92BF92CF92DF92EF92FF9234
S11309A00F931F93CF93DF930E9477042FEF31EEC1
S11309B084E0215030408040E1F700C0000080E72F
S11309C0D82E94E6C92EBB24BA9408EE13E020E195
S11309D0E22E27E2F22E3AEFA32EC0E1D1E080917D
S11309E04E01813031F410924E010E946504D09280
S11309F04F0180915101813019F41092510175C059
S1130A0080917701813071F52091670130916801FF
S1130A10C29EC001C39E900D1124909379018093CE
S1130A20780140917801509179016091650170914C
S1130A306601809153010E94A6000E9409019093CF
S1130A406E0180936D010E94FF009C01B29EC00163
S1130A50B39E900D1124B8010E942B076093B3003C
S1130A601092770180917301813011F5609100013A
S1130A7070910101C7010E942B0770937501609367
S1130A8074010E94040160917401709175010E94C7
S1130A900E019C01A29EC001A39E900D1124B801D9
S1130AA00E942B0770936401609363011092730199
S1130AB020917801309179018091740190917501B0
S1130AC03F932F939F938F93DF93CF930E94880735
S1130AD080916D0190916E010F900F900F900F9087
S1130AE00F900F90892B09F07ACF80916D0190912E
S1130AF06E01892B61F0DF91CF911F910F91FF90CF
S1130B00EF90DF90CF90BF90AF900C946B00DF918B
S1130B10CF911F910F91FF90EF90DF90CF90BF90F6
S1130B20AF900C9446011F920F920FB60F921124AE
S1130B302F933F934F935F936F937F938F939F93E1
S1130B40AF93BF93EF93FF9380916F0190917001E6
S1130B50A0917101B09172010196A11DB11D809304
S1130B606F0190937001A0937101B0937201809111
S1130B704F01803719F481E08093730160916F0114
S1130B8070917001809171019091720125E030E0C3
S1130B9040E050E00E943F07672B682B692B89F5E2
S1130BA080914F01803719F481E08093770180911F
S1130BB04F01833731F580914C01809580934C012E
S1130BC08823C1F080916D0190916E0168E572E017
S1130BD00E942B076093540180916D0190916E01E6
S1130BE06CE370E00E942B07CB016AE070E00E9486
S1130BF02B0703C08AE080935401809350010E9424
S1130C006A0180918800909189008659974E90934B
S1130C10890080938800FF91EF91BF91AF919F91DC
S1130C208F917F916F915F914F913F912F910F9091
S1130C300FBE0F901F9018951F920F920FB60F9230
S1130C4011242F933F934F935F936F937F938F93CD
S1130C509F93AF93BF93EF93FF938091650190911E
S1130C6066010196909366018093650180914F011E
S1130C70803749F580914B01809580934B018823FF
S1130C80C1F080916D0190916E0168E572E00E945F
S1130C902B076093540180916D0190916E016CE378
S1130CA070E00E942B07CB016AE070E00E942B07E2
S1130CB005C08BE0809354018091530180935001CF
S1130CC00E946A0115C080914F01863689F4809193
S1130CD04D01815080934D018091760180958093E0
S1130CE0760180917601811102C0239801C0239A74
S1130CF080918A0090918B008C5D9B4090938B0037
S1130D0080938A00FF91EF91BF91AF919F918F9152
S1130D107F916F915F914F913F912F910F900FBEF3
S1130D200F901F9018951F920F920FB60F921124D7
S1130D302F933F938F939F938091810086FF0DC0E3
S1130D40809181008F7B809381008091B20090E03C
S1130D5090934A018093490112C08091810080647C
S1130D60809381008091B20090E0209149013091FC
S1130D704A01821B930B90936801809367019F91B2
S1130D808F913F912F910F900FBE0F901F90189548
S1130D901F920F920FB60F9211242F933F938F93AC
S1130DA09F93EF93FF93E2EBF0E0808190E020913A
S1130DB0470130914801821B930B9093010180936A
S1130DC00001808190E09093480180934701FF9156
S1130DD0EF919F918F913F912F910F900FBE0F90A4
S1130DE01F9018951F920F920FB60F9211242F93F4
S1130DF03F938F939F9380914F01803789F4459B54
S1130E0009C04598209163013091640188B5821B23
S1130E10865005C0459A809163019091640188BD14
S1130E209F918F913F912F910F900FBE0F901F9024
S1130E3018959093C5008093C40088E18093C10005
S1130E4086E08093C20008959091C00095FFFCCF86
S1130E508093C6000895AA1BBB1B51E107C0AA1FBB
S1130E60BB1FA617B70710F0A61BB70B881F991F47
S1130E705A95A9F780959095BC01CD010895A1E2FA
S1130E801A2EAA1BBB1BFD010DC0AA1FBB1FEE1F00
S1130E90FF1FA217B307E407F50720F0A21BB30B4B
S1130EA0E40BF50B661F771F881F991F1A9469F7C7
S1130EB060957095809590959B01AC01BD01CF0123
S1130EC00895EE0FFF1F0590F491E02D099400247E
S1130ED0A7FD00942A0F301D401D501D601D701D7C
S1130EE0801D901D08952A193B094C095D096E095E
S1130EF07F09800B910B08950024A7FD00942A1705
S1130F00300540055005600570058005900508957D
S1130F10A0E0B0E0EEE8F7E00C943F0AAE014B5FCE
S1130F205F4FFA0161917191AF0180917C019091C1
S1130F307D010E949E07E2E00C945B0AABE0B0E006
S1130F40E4EAF7E00C942F0A6C017B018A01FC01AE
S1130F5017821682838181FFCCC1CE0101963C01A8
S1130F60F6019381F70193FD859193FF81917F01B0
S1130F70882309F4BAC1853239F493FD859193FF2E
S1130F8081917F01853229F4B60190E00E94950990
S1130F90E7CF912C212C312CFFE1F315D8F08B32C3
S1130FA079F038F4803279F08332A1F4232D206172
S1130FB01DC08D3261F0803369F4232D216016C089
S1130FC0832D8260382EE32DE4603E2E2AC0F32D5B
S1130FD0F8601DC037FC2DC020ED280F2A3040F0EA
S1130FE08E32B9F436FC81C1232D2064322E19C00F
S1130FF036FE06C08AE0989E200D1124922E11C060
S1131000EAE02E9E200D1124222EF32DF0623F2EB5
S113101008C08C3621F4832D8068382E02C08836AF
S113102041F4F70193FD859193FF81917F01811133
S1131030B3CF982F9F7D9554933028F40C5F1F4FA6
S11310409FE399830DC0833631F0833771F0833584
S113105009F059C021C0F801808189830E5F1F4FB8
S113106088248394912C530113C02801F2E04F0E7D
S1131070511CF801A080B18036FE03C0692D70E0D8
S113108002C06FEF7FEFC5010E948A094C01820103
S1131090F32DFF773F2E16C0280122E0420E511C8B
S11310A0F801A080B18036FE03C0692D70E002C053
S11310B06FEF7FEFC5010E947F094C01F32DF068AB
S11310C03F2E820133FC1BC0822D90E088169906C6
S11310D0B0F4B60180E290E00E9495092A94F4CF1E
S11310E0F50137FC859137FE81915F01B60190E0EF
S11310F00E94950921102A9421E0821A91088114F2
S1131100910471F7E8C0843611F0893641F5F8018D
S113111037FE07C060817181828193810C5F1F4F0C
S113112008C060817181072E000C880B990B0E5F3B
S11311301F4FF32DFF763F2E97FF09C090958095A2
S1131140709561957F4F8F4F9F4FF0683F2E2AE037
S113115030E0A3010E94D109882E861845C0853746
S113116031F4232D2F7EB22E2AE030E025C0932DBA
S1131170997FB92E8F36C1F018F4883579F0B5C04F
S1131180803719F0883721F0B0C0E92FE061BE2E16
S1131190B4FE0DC0FB2DF460BF2E09C034FE0AC09E
S11311A0292F2660B22E06C028E030E005C020E1D9
S11311B030E002C020E132E0F801B7FE07C06081F0
S11311C07181828193810C5F1F4F06C060817181A0
S11311D080E090E00E5F1F4FA3010E94D109882E8A
S11311E08618FB2DFF773F2E36FE0DC0232D2E7F54
S11311F0A22E891458F434FE0BC032FC09C0832D8E
S11312008E7EA82E05C0B82CA32C03C0B82C01C018
S1131210B92CA4FE0FC0FE01E80DF11D80818033BE
S113122021F49A2D997EA92E09C0A2FE06C0B3947A
S1131230B39404C08A2D867809F0B394A3FC11C03A
S1131240A0FE06C0B21488F4280C922C9B180EC081
S1131250B21460F4B60180E290E00E949509B39460
S1131260F7CFB21418F42B1802C0982C212CA4FE2A
S113127010C0B60180E390E00E949509A2FE17C059
S1131280A1FC03C088E790E002C088E590E0B601C5
S11312900CC08A2D867859F0A1FE02C08BE201C0F1
S11312A080E2A7FC8DE2B60190E00E9495098914C2
S11312B038F4B60180E390E00E9495099A94F7CF40
S11312C08A94F301E80DF11D8081B60190E00E943B
S11312D095098110F5CF222009F442CEB60180E2AF
S11312E090E00E9495092A94F6CFF60186819781B1
S11312F002C08FEF9FEF2B96E2E10C944B0AFC01A6
S11313000590615070400110D8F7809590958E0F2C
S11313109F1F0895FC016150704001900110D8F79F
S1131320809590958E0F9F1F08950F931F93CF93D1
S1131330DF93FB01238121FD03C08FEF9FEF2CC0BE
S113134022FF16C0468157812481358142175307F5
S113135044F4A081B1819D012F5F3F4F31832083ED
S11313608C93268137812F5F3F4F3783268314C0A8
S11313708B01EC01FB010084F185E02D0995892B9B
S1131380E1F6D80116968D919C91179701961796C0
S11313909C938E931697CE01DF91CF911F910F915D
S11313A00895FA01AA27283051F1203181F1E894F7
S11313B06F936E7F6E5F7F4F8F4F9F4FAF4FB1E044
S11313C03ED0B4E03CD0670F781F891F9A1FA11D3F
S11313D0680F791F8A1F911DA11D6A0F711D811D40
S11313E0911DA11D20D009F468943F912AE0269F05
S11313F011243019305D3193DEF6CF010895462F64
S11314004770405D4193B3E00FD0C9F7F6CF462F44
S11314104F70405D4A3318F0495D31FD40524193AD
S113142002D0A9F7EACFB4E0A6959795879577956A
S11314306795BA95C9F700976105710508959B01F1
S1131440AC010A2E06945795479537952795BA957A
S1131450C9F7620F731F841F951FA01D08952F9253
S11314603F924F925F926F927F928F929F92AF9230
S1131470BF92CF92DF92EF92FF920F931F93CF937D
S1131480DF93CDB7DEB7CA1BDB0B0FB6F894DEBF14
S11314900FBECDBF09942A88398848885F846E843A
S11314A07D848C849B84AA84B984C884DF80EE8084
S11314B0FD800C811B81AA81B981CE0FD11D0FB68D
S11314C0F894DEBF0FBECDBFED010895F894FFCFB1
S11314D00A000000000200000000240700000000D1
S11314E074656D7065726174757261203D20257537
S11114F02C207065736F203D2025750A0000C6
S9030000FC
